:020000040800F2
:100000000000012099600008395F0008475F000880
:100010004D5F0008535F0008595F000800000000B2
:100020000000000000000000000000005F5F00080A
:100030006D5F0008000000007B5F0008895F00081A
:10004000E9600008E9600008E9600008E96000086C
:10005000E9600008E9600008E9600008E96000085C
:10006000E9600008E9600008E9600008E96000084C
:10007000E9600008E9600008E9600008E96000083C
:10008000E9600008E9600008E9600008E96000082C
:10009000E9600008E9600008E9600008955F000871
:1000A000E9600008AD5F0008C15F0008E960000872
:1000B000E9600008E9600008E9600008E9600008FC
:1000C000E9600008E9600008E9600008E9600008EC
:1000D000E9600008E9600008E9600008E9600008DC
:1000E000E9600008E9600008E9600008E9600008CC
:1000F000E9600008E9600008E9600008E9600008BC
:10010000E96000080000000000000000E96000084D
:10011000E9600008E9600008D55F0008F15F0008A9
:10012000E9600008E9600008E9600008E96000088B
:10013000E9600008E960000800000000000000001D
:10014000E9600008E9600008E960000800000000BC
:10015000000000000000000000000000000000009F
:10016000E9600008E9600008E9600008E96000084B
:10017000E9600008E9600008E9600008E96000083B
:10018000E9600008E96000080000000000000000CD
:04019000E96000081A
:1001A00010B5054C237833B9044B13B10448AFF3B1
:1001B00000800123237010BDFC0600200000000019
:1001C0002C8F000808B5034B1BB103490348AFF35C
:1001D000008008BD00000000000700202C8F0008F0
:1001E00001F0FF01102A2BDB10F0070F08D010F8E8
:1001F000013B013A8B422DD010F0070F42B3F6D1EC
:10020000F0B441EA012141EA014122F007047FF004
:1002100000070023F0E80256083C85EA010586EA5B
:10022000010685FA47F5A3FA87F586FA47F6A5FA97
:1002300087F68EB9EED1F0BC01F0FF0102F00702A3
:1002400032B110F8013B013A83EA010313B1F8D14E
:100250000020704701387047002D06BF354603382F
:10026000073815F0010F07D1013015F4807F02BF68
:10027000013015F4C03F0130F0BC0138704700BFB9
:10028000034613F8012B002AFBD1181A01387047D6
:1002900081F0004102E000BF83F0004330B54FEA37
:1002A00041044FEA430594EA050F08BF90EA020FA4
:1002B0001FBF54EA000C55EA020C7FEA645C7FEA37
:1002C000655C00F0E2804FEA5454D4EB5555B8BF5A
:1002D0006D420CDD2C4480EA020281EA030382EACB
:1002E000000083EA010180EA020281EA0303362D5D
:1002F00088BF30BD11F0004F4FEA01314FF4801C30
:100300004CEA113102D0404261EB410113F0004F41
:100310004FEA03334CEA133302D0524263EB4303F8
:1003200094EA050F00F0A780A4F10104D5F1200E96
:100330000DDB02FA0EFC22FA05F2801841F10001F1
:1003400003FA0EF2801843FA05F359410EE0A5F1C5
:1003500020050EF1200E012A03FA0EFC28BF4CF0F6
:10036000020C43FA05F3C01851EBE37101F00045AC
:1003700007D54FF0000EDCF1000C7EEB00006EEBB9
:100380000101B1F5801F1BD3B1F5001F0CD3490843
:100390005FEA30004FEA3C0C04F101044FEA44529A
:1003A00012F5800F80F09A80BCF1004F08BF5FEA21
:1003B000500C50F1000041EB045141EA050130BD01
:1003C0005FEA4C0C404141EB010111F4801FA4F1A4
:1003D0000104E9D191F0000F04BF01460020B1FAF9
:1003E00081F308BF2033A3F10B03B3F120020CDA31
:1003F0000C3208DD02F1140CC2F10C0201FA0CF00F
:1004000021FA02F10CE002F11402D8BFC2F1200C73
:1004100001FA02F120FA0CFCDCBF41EA0C01904029
:10042000E41AA2BF01EB0451294330BD6FEA040472
:100430001F3C1CDA0C340EDC04F11404C4F120025D
:1004400020FA04F001FA02F340EA030021FA04F36F
:1004500045EA030130BDC4F10C04C4F1200220FAC6
:1004600002F001FA04F340EA0300294630BD21FA04
:1004700004F0294630BD94F0000F83F4801306BFCA
:1004800081F480110134013D4EE77FEA645C18BFBE
:100490007FEA655C29D094EA050F08BF90EA020F55
:1004A00005D054EA000C04BF1946104630BD91EA4D
:1004B000030F1EBF0021002030BD5FEA545C05D150
:1004C0004000494128BF41F0004130BD14F580048F
:1004D0003CBF01F5801130BD01F0004545F0FE4103
:1004E00041F470014FF0000030BD7FEA645C1ABF38
:1004F000194610467FEA655C1CBF0B46024650EA6F
:10050000013406BF52EA033591EA030F41F400219A
:1005100030BD00BF90F0000F04BF0021704730B520
:100520004FF4806404F132044FF000054FF00001F5
:1005300050E700BF90F0000F04BF0021704730B5B6
:100540004FF4806404F1320410F0004548BF40428B
:100550004FF000013EE700BF42004FEAE2014FEAE0
:1005600031014FEA02701FBF12F07F4393F07F4FBB
:1005700081F06051704792F0000F14BF93F07F4FED
:10058000704730B54FF4607401F0004521F0004130
:1005900020E700BF50EA010208BF704730B54FF0B6
:1005A00000050AE050EA010208BF704730B511F0BB
:1005B000004502D5404261EB41014FF4806404F1F3
:1005C00032045FEA915C3FF4DCAE4FF003025FEA75
:1005D000DC0C18BF03325FEADC0C18BF033202EBFD
:1005E000DC02C2F1200300FA03FC20FA02F001FA57
:1005F00003FE40EA0E0021FA02F11444C1E600BFF6
:1006000070B54FF0FF0C4CF4E06C1CEA11541DBFA8
:100610001CEA135594EA0C0F95EA0C0F00F0DEF873
:100620002C4481EA030621EA4C5123EA4C5350EA58
:10063000013518BF52EA033541F4801143F48013A9
:1006400038D0A0FB02CE4FF00005E1FB02E506F03A
:100650000042E0FB03E54FF00006E1FB03569CF08F
:10066000000F18BF4EF0010EA4F1FF04B6F5007F95
:1006700064F5407404D25FEA4E0E6D4146EB060607
:1006800042EAC62141EA55514FEAC52040EA5E5090
:100690004FEACE2EB4F1FD0C88BFBCF5E06F1ED83A
:1006A000BEF1004F08BF5FEA500E50F1000041EB71
:1006B000045170BD06F0004646EA010140EA02001E
:1006C00081EA0301B4EB5C04C2BFD4EB0C0541EA40
:1006D000045170BD41F480114FF0000E013C00F355
:1006E000AB8014F1360FDEBF002001F0004170BD79
:1006F000C4F10004203C35DA0C341BDC04F1140492
:10070000C4F1200500FA05F320FA04F001FA05F21D
:1007100040EA020001F0004221F0004110EBD370EA
:1007200021FA04F642EB06015EEA430E08BF20EA16
:10073000D37070BDC4F10C04C4F1200500FA04F3B9
:1007400020FA05F001FA04F240EA020001F000414B
:1007500010EBD37041F100015EEA430E08BF20EABE
:10076000D37070BDC4F1200500FA05F24EEA020E06
:1007700020FA04F301FA05F243EA020321FA04F035
:1007800001F0004121FA04F220EA020000EBD370EC
:100790005EEA430E08BF20EAD37070BD94F0000FEC
:1007A0000FD101F00046400041EB010111F4801F20
:1007B00008BF013CF7D041EA060195F0000F18BFD1
:1007C000704703F00046520043EB030313F4801F0D
:1007D00008BF013DF7D043EA0603704794EA0C0FC7
:1007E0000CEA135518BF95EA0C0F0CD050EA4106DD
:1007F00018BF52EA4306D1D181EA030101F000415A
:100800004FF0000070BD50EA410606BF1046194681
:1008100052EA430619D094EA0C0F02D150EA01368D
:1008200013D195EA0C0F05D152EA03361CBF1046CE
:1008300019460AD181EA030101F0004141F0FE416D
:1008400041F470014FF0000070BD41F0FE4141F4F1
:10085000780170BD70B54FF0FF0C4CF4E06C1CEAF1
:1008600011541DBF1CEA135594EA0C0F95EA0C0FA6
:1008700000F0A7F8A4EB050481EA030E52EA033561
:100880004FEA013100F088804FEA03334FF0805582
:1008900045EA131343EA12634FEA022245EA1115AF
:1008A00045EA10654FEA00260EF000419D4208BF60
:1008B000964244F1FD0404F5407402D25B084FEA0D
:1008C0003202B61A65EB03055B084FEA32024FF4B9
:1008D00080104FF4002CB6EB020E75EB030E22BF16
:1008E000B61A754640EA0C005B084FEA3202B6EBD6
:1008F000020E75EB030E22BFB61A754640EA5C0085
:100900005B084FEA3202B6EB020E75EB030E22BF14
:10091000B61A754640EA9C005B084FEA3202B6EB15
:10092000020E75EB030E22BFB61A754640EADC00D4
:1009300055EA060E18D04FEA051545EA16754FEA36
:1009400006164FEAC30343EA52734FEAC2025FEA54
:100950001C1CC0D111F4801F0BD141EA00014FF0E3
:1009600000004FF0004CB6E711F4801F04BF0143B4
:100970000020B4F1FD0C88BFBCF5E06F3FF6AFAED0
:10098000B5EB030C04BFB6EB020C5FEA500C50F160
:10099000000041EB045170BD0EF0004E4EEA1131E3
:1009A00014EB5C04C2BFD4EB0C0541EA045170BDEA
:1009B00041F480114FF0000E013C90E645EA060E2E
:1009C0008DE60CEA135594EA0C0F08BF95EA0C0F5C
:1009D0003FF43BAF94EA0C0F0AD150EA01347FF4A4
:1009E00034AF95EA0C0F7FF425AF104619462CE77B
:1009F00095EA0C0F06D152EA03353FF4FDAE1046DE
:100A0000194622E750EA410618BF52EA43067FF42E
:100A1000C5AE50EA41047FF40DAF52EA43057FF4BE
:100A2000EBAE12E74FF0FF3C06E000BF4FF0010CC9
:100A300002E000BF4FF0010C4DF804CD4FEA410C2D
:100A40007FEA6C5C4FEA430C18BF7FEA6C5C1BD0FA
:100A500001B050EA410C0CBF52EA430C91EA030F7B
:100A600002BF90EA020F0020704710F1000F91EAD8
:100A7000030F58BF994208BF90422CBFD8176FEAA6
:100A8000E37040F0010070474FEA410C7FEA6C5C74
:100A900002D150EA013C07D14FEA430C7FEA6C5C7B
:100AA000D6D152EA033CD3D05DF8040B704700BFA7
:100AB0008446104662468C461946634600E000BFF5
:100AC00001B5FFF7B7FF002848BF10F1000F01BDC7
:100AD0004DF808EDFFF7F4FF0CBF012000205DF892
:100AE00008FB00BF4DF808EDFFF7EAFF34BF012017
:100AF00000205DF808FB00BF4DF808EDFFF7E0FFB0
:100B000094BF012000205DF808FB00BF4DF808ED00
:100B1000FFF7CEFF94BF012000205DF808FB00BF67
:100B20004DF808EDFFF7C4FF34BF012000205DF849
:100B300008FB00BF4FEA410C7FEA6C5C02D150EA2F
:100B4000013C0AD14FEA430C7FEA6C5C02D152EAC5
:100B5000033C02D14FF0000070474FF00100704796
:100B60004FEA410212F5001215D211D56FF47873D5
:100B7000B3EB625212D94FEAC12343F0004343EA78
:100B8000505311F0004F23FA02F018BF4042704753
:100B90004FF00000704750EA013005D111F00040DD
:100BA00008BF6FF0004070474FF00000704700BF73
:100BB0004A0011D212F5001211D20DD56FF47873DC
:100BC000B3EB62520ED44FEAC12343F0004343EA31
:100BD000505323FA02F070474FF00000704750EA7C
:100BE000013002D14FF0FF3070474FF000007047E6
:100BF0004FEA4102B2F1E04324BFB3F5001CDCF13F
:100C0000FE5C0DD901F0004C4FEAC0024CEA507076
:100C1000B2F1004F40EB830008BF20F001007047A5
:100C200011F0804F21D113F13872BCBF01F00040A8
:100C3000704741F480114FEA5252C2F11802C2F1DA
:100C4000200C10FA0CF320FA02F018BF40F001005B
:100C50004FEAC1234FEAD32303FA0CFC40EA0C000D
:100C600023FA02F34FEA4303CCE77FEA625307D14A
:100C700050EA01331EBF4FF0FE4040F44000704781
:100C800001F0004040F0FE4040F40000704700BF1B
:100C900053B94AB9002908BF00281CBF4FF0FF31E3
:100CA0004FF0FF3000F07AB9ADF1080C6DE904CED9
:100CB00000F006F8DDF804E0DDE9022304B0704737
:100CC0002DE9F0478C460D460446089E002B51D175
:100CD0008A4217466DD9B2FA82FEBEF1000F0BD0E0
:100CE000CEF1200C01FA0EF520FA0CFC02FA0EF7F8
:100CF0004CEA050C00FA0EF44FEA174A250CBCFB2F
:100D0000FAF81FFA87F90AFB18CC45EA0C4508FBEC
:100D100009F3AB420AD9ED1908F1FF3280F02381C3
:100D2000AB4240F22081A8F102083D44ED1AA4B282
:100D3000B5FBFAF00AFB105544EA054400FB09F93B
:100D4000A14509D9E41900F1FF3380F00A81A145DA
:100D500040F2078102383C44A4EB090440EA084011
:100D60000021002E61D024FA0EF400233460736059
:100D7000BDE8F0878B4207D9002E54D0002186E8C9
:100D800021000846BDE8F087B3FA83F1002940F05E
:100D90008E80AB4202D3824200F2FA80841A65EB65
:100DA00003050120AC46002E3FD086E81010BDE8B8
:100DB000F08712B90127B7FBF2F7B7FA87FEBEF149
:100DC000000F34D1EB1B3A0C1FFA87FC0121B3FB57
:100DD000F2F8250C02FB183345EA03450CFB08F337
:100DE000AB4207D9ED1908F1FF3002D2AB4200F255
:100DF000D1808046ED1AA3B2B5FBF2F002FB10558C
:100E000043EA05440CFB00FCA44507D9E41900F1B2
:100E1000FF3302D2A44500F2B8801846A4EB0C04BC
:100E200040EA08409DE731463046BDE8F087CEF104
:100E3000200405FA0EF307FA0EF720FA04F83A0C2C
:100E400025FA04F448EA0308B4FBF2F14FEA184526
:100E500002FB11441FFA87FC45EA044501FB0CF331
:100E6000AB4200FA0EF409D9ED1901F1FF3080F020
:100E70008A80AB4240F2878002393D44EB1A1FFA68
:100E800088F5B3FBF2F002FB103345EA034500FBA3
:100E90000CF3AB4207D9ED1900F1FF386FD2AB422A
:100EA0006DD902383D44EB1A40EA01418FE7C1F1A8
:100EB000200722FA07F88B4005FA01F448EA0303F9
:100EC00020FA07FE4FEA134CFD404EEA040EB5FB34
:100ED000FCF94FEA1E440CFB19551FFA83F844EA4B
:100EE000054509FB08F4AC4202FA01F200FA01FAE6
:100EF00008D9ED1809F1FF3043D2AC4241D9A9F12C
:100F000002091D442D1B1FFA8EFEB5FBFCF00CFBE5
:100F100010554EEA054400FB08F8A04507D9E4182F
:100F200000F1FF3529D2A04527D902381C4440EAF8
:100F30000940A4EB0804A0FB02894C45C6464D4677
:100F400015D312D056B1BAEB0E0364EB050404FAC4
:100F500007F7CB401F43CC40376074600021BDE8E9
:100F6000F0871846F8E69046E0E6C245EAD2B8EBCC
:100F7000020E69EB03050138E4E72846D7E740464F
:100F800091E78146BEE7014678E702383C4445E7F1
:100F9000084608E7A8F102083D442BE7704700BF68
:100FA00080B500AF084A084B1B6843F0100313607C
:100FB000032000F047F9002000F008F804F052FE8A
:100FC0000023184680BD00BF0020024080B582B0DB
:100FD00000AF7860124B1A68124B1B7819464FF419
:100FE0007A73B3FBF1F3B2FBF3F3184600F05FF949
:100FF0000346002B01D001230EE07B680F2B0AD89B
:10100000002279684FF0FF3000F027F9064A7B682C
:101010001360002300E0012318460837BD4680BD59
:1010200088000020040000200000002080B400AFF1
:10103000064B1B781A46064B1B681344044A136080
:1010400000BFBD465DF8047B704700BF0400002070
:10105000700B002080B400AF034B1B681846BD46E0
:101060005DF8047B704700BF700B002080B584B032
:1010700000AF7860FFF7EEFFB8607B68FB60FB684D
:10108000B3F1FF3F05D0094B1B781A46FB681344A8
:10109000FB6000BFFFF7DEFF0246BB68D21AFB68A9
:1010A0009A42F7D300BF1037BD4680BD0400002030
:1010B00080B485B000AF78607B6803F00703FB6005
:1010C0000C4BDB68BB60BA684FF6FF031340BB6094
:1010D000FB681A02BB68134343F0BF6343F4003359
:1010E000BB60044ABB68D36000BF1437BD465DF8DF
:1010F000047B704700ED00E080B400AF044BDB6878
:101100001B0A03F007031846BD465DF8047B7047D1
:1011100000ED00E080B483B000AF0346FB710949E5
:1011200097F907305B09FA7902F01F02012000FAF3
:1011300002F241F8232000BF0C37BD465DF8047B66
:10114000704700BF00E100E080B483B000AF034609
:101150003960FB7197F90730002B0BDA0D49FB79E9
:1011600003F00F03043B3A68D2B21201D2B20B442F
:101170001A7609E0084997F907303A68D2B21201A5
:10118000D2B20B4483F8002300BF0C37BD465DF894
:10119000047B704700ED00E000E100E080B489B01E
:1011A00000AFF860B9607A60FB6803F00703FB6189
:1011B000FB69C3F10703042B28BF0423BB61FB6950
:1011C0000433062B02D9FB69033B00E000237B615B
:1011D0000122BB6902FA03F35A1EBB681A407B69FD
:1011E0009A4001217B6901FA03F3591E7B680B4089
:1011F000134318462437BD465DF8047B7047000052
:1012000080B582B000AF78607B68013BB3F1807F2E
:1012100001D301230FE00A4A7B68013B53600F2191
:101220004FF0FF30FFF790FF054B00229A60044B10
:1012300007221A60002318460837BD4680BD00BF4C
:1012400010E000E080B582B000AF78607868FFF70A
:101250002FFF00BF0837BD4680BD80B586B000AF08
:101260000346B9607A60FB7300237B61FFF744FF9C
:1012700078617A68B9687869FFF790FF024697F954
:101280000F3011461846FFF75FFF00BF1837BD4605
:1012900080BD80B582B000AF0346FB7197F907307F
:1012A0001846FFF737FF00BF0837BD4680BD80B541
:1012B00082B000AF78607868FFF7A2FF0346184657
:1012C0000837BD4680BD80B582B000AF78607B68CE
:1012D000002B01D1012314E07B681B79DBB2002BCA
:1012E00005D17B6800225A71786804F0DFFC7B68C6
:1012F00002221A717B6800221A617B6801221A712E
:10130000002318460837BD4680BD80B483B000AFC7
:10131000786000BF0C37BD465DF8047B704780B431
:1013200087B000AFF860B9607A603B6000237B61F2
:10133000FB681B687B61BB68002B05D17A697B6801
:10134000134408337B6104E07A697B6813441433E7
:101350007B617B691A463B681360002318461C3783
:10136000BD465DF8047B704780B483B000AF786001
:1013700039607B685B79012B01D102233AE07B68FD
:1013800001225A717B6802221A717B681B687A6895
:101390001268116801203A6800FA02F20A431A60E2
:1013A0003B68002B0FD17B681B681B6803F03C0374
:1013B0003C2B18D17B681B687A681268526842F02F
:1013C00001025A600FE07B681B681B6803F470130E
:1013D000B3F5701F07D17B681B687A681268526882
:1013E00042F002025A607B6801221A717B68002277
:1013F0005A71002318460C37BD465DF8047B7047D0
:1014000080B582B000AF78607B681B681B6803F40E
:101410000053B3F5005F20D17B681B685B6B03F45E
:101420000053B3F5005F18D17B6804221A717B6802
:101430001B6943F001027B681A617B681B684FF4EB
:1014400000525A637B681B687A681268126822F43B
:1014500080521A607868FFF758FF7B681B681B682A
:1014600003F00053B3F1005F20D17B681B685B6B16
:1014700003F00053B3F1005F18D17B6804221A71A6
:101480007B681B6943F002027B681A617B681B68FA
:101490004FF000525A637B681B687A6812681268C2
:1014A00022F080521A60786800F051F800BF0837C7
:1014B000BD4680BD80B487B000AFF860B9607A6087
:1014C00000237B6100233B61FB685B79012B01D129
:1014D000022336E0FB6801225A71FB6802221A716E
:1014E000FB681B681B687B6140F6FE727B6802FA32
:1014F00003F3DB437A6913407B61BB681A68BB68FE
:101500005B6813433B613A697B6802FA03F37A69CB
:1015100013437B61FB681B687A691A60FB681B6870
:10152000FA6812681168C0207A6800FA02F2D243A1
:101530000A401A60FB6801221A71FB6800225A7186
:10154000002318461C37BD465DF8047B704780B405
:1015500083B000AF786000BF0C37BD465DF8047BF8
:101560007047000080B487B000AF78603960002316
:101570007B610023FB6000233B6160E13B681A68EC
:1015800001217B6901FA03F31340FB60FB68002B28
:1015900000F052813B685B68022B03D03B685B68BC
:1015A000122B23D17B69DA087B68083253F822308A
:1015B0003B617B6903F007039B000F2202FA03F3F0
:1015C000DB433A6913403B613B681A697B6903F06E
:1015D00007039B0002FA03F33A6913433B617B69FB
:1015E000DA087B680832396943F822107B681B6887
:1015F0003B617B695B00032202FA03F3DB433A6938
:1016000013403B613B685B6803F003027B695B004E
:1016100002FA03F33A6913433B617B683A691A6043
:101620003B685B68012B0BD03B685B68022B07D0E3
:101630003B685B68112B03D03B685B68122B30D191
:101640007B689B683B617B695B00032202FA03F3C2
:10165000DB433A6913403B613B68DA687B695B00B6
:1016600002FA03F33A6913433B617B683A699A6073
:101670007B685B683B6101227B6902FA03F3DB4311
:101680003A6913403B613B685B681B0903F0010248
:101690007B6902FA03F33A6913433B617B683A6959
:1016A0005A607B68DB683B617B695B00032202FA5E
:1016B00003F3DB433A6913403B613B689A687B69FB
:1016C0005B0002FA03F33A6913433B617B683A69B2
:1016D000DA603B685B6803F08053002B00F0AC805D
:1016E0005E4A5E4B9B6943F0010393615B4B9B69D0
:1016F00003F00103BB60BB68594A7B699B08023356
:1017000052F823303B617B6903F003039B000F22F7
:1017100002FA03F3DB433A6913403B617B68B3F1A0
:10172000904F25D07B684F4A93421FD07B684E4A2A
:10173000934219D07B684D4A934213D07B684C4A40
:1017400093420DD07B684B4A934207D07B684A4A4C
:10175000934201D106230CE007230AE0052308E0A9
:10176000042306E0032304E0022302E0012300E057
:1017700000237A6902F00302920093403A6913430E
:101780003B6137497B699B0802333A6941F8232062
:101790003A4B1B683B61FB68DB433A6913403B6192
:1017A0003B685B6803F48033002B03D03A69FB6825
:1017B00013433B61314A3B691360304B5B683B61CB
:1017C000FB68DB433A6913403B613B685B6803F4A9
:1017D0000033002B03D03A69FB6813433B61274A6F
:1017E0003B695360254B9B683B61FB68DB433A696F
:1017F00013403B613B685B6803F48013002B03D00C
:101800003A69FB6813433B611C4A3B6993601B4B7D
:10181000DB683B61FB68DB433A6913403B613B6833
:101820005B6803F40013002B03D03A69FB68134391
:101830003B61124A3B69D3607B6901337B613B6842
:101840001A687B6922FA03F3002B7FF497AE00BF7E
:101850001C37BD465DF8047B704700BF0010024096
:10186000000001400004004800080048000C004847
:10187000001000480014004800180048000401400F
:1018800080B485B000AF78600B467B807B681A69B6
:101890007B881340002B02D00123FB7301E000235F
:1018A000FB73FB7B18461437BD465DF8047B70471D
:1018B00080B483B000AF78600B467B8013467B70AA
:1018C0007B78002B03D07A887B689A6102E07A8863
:1018D0007B689A6200BF0C37BD465DF8047B704799
:1018E00080B483B000AF78600B467B807B685A6918
:1018F0007B885A407B685A6100BF0C37BD465DF853
:10190000047B704780B582B000AF0346FB80084B74
:101910005A69FB881340002B06D0054AFB885361A7
:10192000FB88184603F0D0FD00BF0837BD4680BDD8
:101930000004014080B582B000AF78607B68002B66
:1019400001D1012380E07B6893F84130DBB2002BAA
:1019500006D17B68002283F84020786804F0ECF917
:101960007B68242283F841207B681B687A681268B0
:10197000126822F001021A607B681B687A6852685C
:1019800022F070621A617B681B687A68126892683C
:1019900022F400429A607B68DB68012B07D17B68E8
:1019A0001B687A68926842F400429A6006E07B689D
:1019B0001B687A68926842F404429A607B68DB682C
:1019C000022B04D17B681B684FF400625A607B686D
:1019D0001A687B681B685B6843F0007343F400433C
:1019E00053607B681B687A681268D26822F40042F0
:1019F000DA607B681B687A6811697A6852691143FA
:101A00007A68926912020A43DA607B681B687A6816
:101A1000D1697A68126A0A431A607B681B687A681F
:101A20001268126842F001021A607B6800225A6450
:101A30007B68202283F841207B6800221A637B6840
:101A4000002283F84220002318460837BD4680BD97
:101A500080B588B002AFF860084611461A460346C2
:101A60007B810B463B811346FB8000237B61FB6837
:101A700093F84130DBB2202B40F009813B6A002B08
:101A800002D0BB8C002B01D1012301E1FB6893F84C
:101A90004030012B01D10223FAE0FB68012283F8D8
:101AA0004020FFF7D7FA78617B6900931923012260
:101AB0004FF40041F86800F0FBFA0346002B01D018
:101AC0000323E5E0FB68212283F84120FB684022E4
:101AD00083F84220FB6800225A64FB683A6A5A6223
:101AE000FB68BA8C5A85FB6800225A63F8883A89E9
:101AF00079897B690193BB6A00930346F86800F01B
:101B0000F3F90346002B0FD0FB685B6C042B05D167
:101B1000FB68002283F840200123B9E0FB68002223
:101B200083F840200323B3E0FB685B8D9BB2FF2B5F
:101B30000ED9FB68FF221A85FB681B8DDAB2798902
:101B4000002300934FF08073F86800F0C5FB0FE0AE
:101B5000FB685B8D9AB2FB681A85FB681B8DDAB255
:101B60007989002300934FF00073F86800F0B4FB0C
:101B70007A69B96AF86800F0D5FA0346002B07D0F5
:101B8000FB685B6C042B01D1012381E003237FE020
:101B9000FB681A68FB685B6A581CF96848621B7826
:101BA0009362FB685B8D9BB2013B9AB2FB685A85DE
:101BB000FB681B8D013B9AB2FB681A85FB681B8D85
:101BC000002B35D1FB685B8D9BB2002B30D07B693D
:101BD0000093BB6A00228021F86800F069FA03468E
:101BE000002B01D0032353E0FB685B8D9BB2FF2BDE
:101BF0000ED9FB68FF221A85FB681B8DDAB2798942
:101C0000002300934FF08073F86800F065FB0FE04D
:101C1000FB685B8D9AB2FB681A85FB681B8DDAB294
:101C20007989002300934FF00073F86800F054FBAB
:101C3000FB685B8D9BB2002B9AD17A69B96AF86810
:101C400000F0B0FA0346002B07D0FB685B6C042B56
:101C500001D101231CE003231AE0FB681B6820224A
:101C6000DA61FB681A68FB681B6859680A4B0B400D
:101C70005360FB68202283F84120FB68002283F830
:101C80004220FB68002283F84020002300E002236A
:101C900018461837BD4680BD00E800FE80B588B004
:101CA00002AFF860084611461A4603467B810B4690
:101CB0003B811346FB8000237B61FB6893F8413036
:101CC000DBB2202B40F007813B6A002B02D0BB8C9B
:101CD000002B01D10123FFE0FB6893F84030012B7A
:101CE00001D10223F8E0FB68012283F84020FFF7CE
:101CF000B1F978617B690093192301224FF4004107
:101D0000F86800F0D5F90346002B01D00323E3E087
:101D1000FB68222283F84120FB68402283F842209E
:101D2000FB6800225A64FB683A6A5A62FB68BA8C04
:101D30005A85FB6800225A63F8883A8979897B6959
:101D40000193BB6A00930346F86800F02DF903463F
:101D5000002B0FD0FB685B6C042B05D1FB680022C5
:101D600083F840200123B7E0FB68002283F840207D
:101D70000323B1E0FB685B8D9BB2FF2B0ED9FB68A0
:101D8000FF221A85FB681B8DDAB27989544B0093C8
:101D90004FF08073F86800F09FFA0FE0FB685B8DEE
:101DA0009AB2FB681A85FB681B8DDAB279894C4BB5
:101DB00000934FF00073F86800F08EFA7B6900938F
:101DC000BB6A00220421F86800F072F90346002B78
:101DD00001D0032380E0FB685B6A591CFA685162FA
:101DE000FA681268526AD2B21A70FB681B8D013B06
:101DF0009AB2FB681A85FB685B8D9BB2013B9AB275
:101E0000FB685A85FB681B8D002B35D1FB685B8D09
:101E10009BB2002B30D07B690093BB6A00228021EB
:101E2000F86800F045F90346002B01D0032353E086
:101E3000FB685B8D9BB2FF2B0ED9FB68FF221A85D6
:101E4000FB681B8DDAB27989002300934FF0807311
:101E5000F86800F041FA0FE0FB685B8D9AB2FB680E
:101E60001A85FB681B8DDAB27989002300934FF045
:101E70000073F86800F030FAFB685B8D9BB2002BB2
:101E80009CD17A69B96AF86800F08CF90346002B96
:101E900007D0FB685B6C042B01D101231CE00323FA
:101EA0001AE0FB681B682022DA61FB681A68FB688D
:101EB0001B6859680B4B0B405360FB68202283F86A
:101EC0004120FB68002283F84220FB68002283F84F
:101ED0004020002300E0022318461837BD4680BD8D
:101EE0000024008000E800FE80B586B002AFF860F4
:101EF000084611461A4603467B810B463B81134632
:101F0000FB80FB88DAB27989264B00934FF080730F
:101F1000F86800F0E1F9FA69B969F86800F002F9C7
:101F20000346002B07D0FB685B6C042B01D1012317
:101F300034E0032332E0FB88012B05D1FB681B68EA
:101F40003A89D2B29A621BE0FB681B683A89120A8E
:101F500092B2D2B29A62FA69B969F86800F0E2F80E
:101F60000346002B07D0FB685B6C042B01D10123D7
:101F700014E0032312E0FB681B683A89D2B29A622C
:101F8000FB690093BB6900228021F86800F090F89B
:101F90000346002B01D0032300E00023184610372E
:101FA000BD4680BD0020008080B586B002AFF860DD
:101FB000084611461A4603467B810B463B81134671
:101FC000FB80FB88DAB27989264B00930023F868FE
:101FD00000F082F9FA69B969F86800F0A3F80346DD
:101FE000002B07D0FB685B6C042B01D1012334E08C
:101FF000032332E0FB88012B05D1FB681B683A897B
:10200000D2B29A621BE0FB681B683A89120A92B24C
:10201000D2B29A62FA69B969F86800F083F80346A7
:10202000002B07D0FB685B6C042B01D1012314E06B
:10203000032312E0FB681B683A89D2B29A62FB69FB
:102040000093BB6900224021F86800F031F8034694
:10205000002B01D0032300E0002318461037BD46B3
:1020600080BD00BF0020008080B483B000AF7860E6
:102070007B681B689B6903F00203022B03D17B681A
:102080001B6800229A627B681B689B6903F001034E
:10209000012B07D07B681B687A681268926942F04E
:1020A00001029A6100BF0C37BD465DF8047B7047A2
:1020B00080B584B000AFF860B9603B601346FB7137
:1020C0001CE03B68B3F1FF3F18D03B68002B07D002
:1020D000FEF7C0FF0246BB69D21A3B689A420DD98F
:1020E000FB68202283F84120FB68002283F842200D
:1020F000FB68002283F8402003230FE0FB681B6885
:102100009A69BB681A40BB689A420CBF012300233E
:10211000DBB21A46FB799A42D3D000231846103717
:10212000BD4680BD80B584B000AFF860B9607A600C
:102130002CE07A68B968F86800F070F80346002B64
:1021400001D001232AE0BB68B3F1FF3F1ED0BB687A
:10215000002B07D0FEF77EFF02467B68D21ABB68D1
:102160009A4213D9FB685B6C43F02002FB685A6407
:10217000FB68202283F84120FB68002283F842207C
:10218000FB68002283F84020032307E0FB681B68FC
:102190009B6903F00203022BCBD1002318461037B2
:1021A000BD4680BD80B584B000AFF860B9607A608C
:1021B00028E07A68B968F86800F030F80346002B28
:1021C00001D0012326E0BB68002B07D0FEF742FFB9
:1021D00002467B68D21ABB689A4213D9FB685B6CD3
:1021E00043F02002FB685A64FB68202283F84120F8
:1021F000FB68002283F84220FB68002283F840201D
:10220000032307E0FB681B689B6903F02003202B76
:10221000CFD1002318461037BD4680BD80B584B0AD
:1022200000AFF860B9607A60FB681B689B6903F0D7
:102230001003102B48D11CE0BB68B3F1FF3F18D04E
:10224000BB68002B07D0FEF705FF02467B68D21A59
:10225000BB689A420DD9FB68202283F84120FB68B5
:10226000002283F84220FB68002283F840200323E9
:102270002BE0FB681B689B6903F02003202BDBD15C
:10228000FB681B681022DA61FB681B682022DA6198
:10229000F868FFF7E9FEFB681A68FB681B68596875
:1022A0000C4B0B405360FB6804225A64FB682022ED
:1022B00083F84120FB68002283F84220FB6800225B
:1022C00083F84020012300E0002318461037BD4664
:1022D00080BD00BF00E800FE80B485B000AFF860AC
:1022E0007B600B467B8113467B72FB681A68FB6838
:1022F0001B685968BB695B0D03F480600B4B03439B
:10230000DB4319407B89C3F309007B7A1B0403F488
:102310007F0318437B681843BB6903430B43536037
:1023200000BF1437BD465DF8047B7047FF63FF03B1
:1023300080B483B000AF786039607B6893F8413037
:10234000DBB2202B38D17B6893F84030012B01D1D0
:10235000022332E07B68012283F840207B6824223C
:1023600083F841207B681B687A681268126822F043
:1023700001021A607B681B687A681268126822F48E
:1023800080521A607B681B687A68126811683A6824
:102390000A431A607B681B687A681268126842F008
:1023A00001021A607B68202283F841207B680022AA
:1023B00083F84020002300E0022318460C37BD4676
:1023C0005DF8047B704780B485B000AF78603960F9
:1023D0000023FB607B6893F84130DBB2202B39D1BE
:1023E0007B6893F84030012B01D1022333E07B68F6
:1023F000012283F840207B68242283F841207B68F7
:102400001B687A681268126822F001021A607B6801
:102410001B681B68FB60FB6823F47063FB603B6810
:102420001B02FA681343FB607B681B68FA681A603A
:102430007B681B687A681268126842F001021A60B1
:102440007B68202283F841207B68002283F84020AB
:10245000002300E0022318461437BD465DF8047BD4
:102460007047000080B5ADF5007D00AF3B1D1860E2
:102470003B1D1B68002B02D1012300F0DABE3B1D7F
:102480001B681B6803F00103002B00F06481B04B54
:102490005B6803F00C03042B0CD0AD4B5B6803F0BE
:1024A0000C03082B5AD1AA4B5B6803F4C033B3F575
:1024B000803F53D14FF40033C7F8F431D7F8F431EB
:1024C00093FAA3F3C7F8F031D7F8F031B3FA83F3F6
:1024D000DBB25B09DBB243F00103DBB2012B02D1BB
:1024E0009B4B1B6815E04FF40033C7F8EC31D7F86D
:1024F000EC3193FAA3F3C7F8E8314FF40033C7F88F
:10250000E431D7F8E43193FAA3F3C7F8E031904B04
:102510005B6A4FF40032C7F8DC21D7F8DC2192FA6D
:10252000A2F2C7F8D821D7F8D821B2FA82F252B273
:1025300042F0200252B2D2B202F01F02012101FA8F
:1025400002F21340002B00F005813B1D1B685B6805
:10255000002B40F0FF80012300F06BBE3B1D1B6889
:102560005B68B3F5803F06D1794A794B1B6843F429
:102570008033136030E03B1D1B685B68002B0CD17F
:10258000734A734B1B6823F480331360704A704B9B
:102590001B6823F4802313601EE03B1D1B685B68EF
:1025A000B3F5A02F0CD16A4A694B1B6843F4802312
:1025B0001360674A664B1B6843F4803313600BE07B
:1025C000634A634B1B6823F480331360604A604B9B
:1025D0001B6823F4802313603B1D1B685B68002B82
:1025E0005AD0FEF737FDC7F8F8010AE0FEF732FDD2
:1025F0000246D7F8F831D31A642B02D9032300F02E
:1026000018BE4FF40033C7F8D431D7F8D43193FA59
:10261000A3F3C7F8D031D7F8D031B3FA83F3DBB2E4
:102620005B09DBB243F00103DBB2012B02D1484B63
:102630001B6815E04FF40033C7F8CC31D7F8CC3124
:1026400093FAA3F3C7F8C8314FF40033C7F8C43185
:10265000D7F8C43193FAA3F3C7F8C0313C4B5B6A97
:102660004FF40032C7F8BC21D7F8BC2192FAA2F28D
:10267000C7F8B821D7F8B821B2FA82F252B242F0C4
:10268000200252B2D2B202F01F02012101FA02F27C
:102690001340002BAAD05EE0FEF7DCFCC7F8F8017F
:1026A0000AE0FEF7D7FC0246D7F8F831D31A642BBC
:1026B00002D9032300F0BDBD4FF40033C7F8B43195
:1026C000D7F8B43193FAA3F3C7F8B031D7F8B031E3
:1026D000B3FA83F3DBB25B09DBB243F00103DBB295
:1026E000012B02D11A4B1B6815E04FF40033C7F8D9
:1026F000AC31D7F8AC3193FAA3F3C7F8A8314FF453
:102700000033C7F8A431D7F8A43193FAA3F3C7F87C
:10271000A0310F4B5B6A4FF40032C7F89C21D7F809
:102720009C2192FAA2F2C7F89821D7F89821B2FA20
:1027300082F252B242F0200252B2D2B202F01F0232
:10274000012101FA02F21340002BAAD103E000BFDD
:102750000010024000BF3B1D1B681B6803F0020312
:10276000002B00F07181D04B5B6803F00C03002B51
:102770000CD0CD4B5B6803F00C03082B6ED1CA4B19
:102780005B6803F4C033B3F5004F67D10223C7F889
:102790009431D7F8943193FAA3F3C7F89031D7F86E
:1027A0009031B3FA83F3DBB25B09DBB243F0010390
:1027B000DBB2012B02D1BC4B1B6813E00223C7F82C
:1027C0008C31D7F88C3193FAA3F3C7F88831022300
:1027D000C7F88431D7F8843193FAA3F3C7F880316E
:1027E000B14B5B6A0222C7F87C21D7F87C2192FAB0
:1027F000A2F2C7F87821D7F87821B2FA82F252B261
:1028000042F0200252B2D2B202F01F02012101FABC
:1028100002F21340002B07D03B1D1B68DB68012B25
:1028200002D0012300F005BD9F489F4B1B6823F099
:10283000F8023B1D1B681969F823C7F87431D7F8F3
:10284000743193FAA3F3C7F87031D7F87031B3FA43
:1028500083F301FA03F313430360F5E03B1D1B68A8
:10286000DB68002B00F085800123C7F86C31D7F8B6
:102870006C3193FAA3F3C7F86831D7F86831B3FA2B
:1028800083F303F1845303F584139B001A46012359
:102890001360FEF7DFFBC7F8F8010AE0FEF7DAFB8A
:1028A0000246D7F8F831D31A022B02D9032300F0DD
:1028B000C0BC0223C7F86431D7F8643193FAA3F39C
:1028C000C7F86031D7F86031B3FA83F3DBB25B0944
:1028D000DBB243F00103DBB2012B02D1724B1B6868
:1028E00013E00223C7F85C31D7F85C3193FAA3F305
:1028F000C7F858310223C7F85431D7F8543193FA46
:10290000A3F3C7F85031684B5B6A0222C7F84C2129
:10291000D7F84C2192FAA2F2C7F84821D7F84821FB
:10292000B2FA82F252B242F0200252B2D2B202F0B5
:102930001F02012101FA02F21340002BAED05A48C7
:10294000594B1B6823F0F8023B1D1B681969F823DB
:10295000C7F84431D7F8443193FAA3F3C7F84031AC
:10296000D7F84031B3FA83F301FA03F3134303605A
:102970006AE00123C7F83C31D7F83C3193FAA3F35E
:10298000C7F83831D7F83831B3FA83F303F18453F9
:1029900003F584139B001A4600231360FEF75AFBCD
:1029A000C7F8F8010AE0FEF755FB0246D7F8F83100
:1029B000D31A022B02D9032300F03BBC0223C7F831
:1029C0003431D7F8343193FAA3F3C7F83031D7F85C
:1029D0003031B3FA83F3DBB25B09DBB243F00103BE
:1029E000DBB2012B02D1304B1B6813E00223C7F886
:1029F0002C31D7F82C3193FAA3F3C7F828310223EE
:102A0000C7F82431D7F8243193FAA3F3C7F820315B
:102A1000254B5B6A0222C7F81C21D7F81C2192FAC9
:102A2000A2F2C7F81821D7F81821B2FA82F252B2EE
:102A300042F0200252B2D2B202F01F02012101FA8A
:102A400002F21340002BAED13B1D1B681B6803F044
:102A50000803002B00F0D7803B1D1B685B69002B2F
:102A600066D00123C7F81431D7F8143193FAA3F3D1
:102A7000C7F81031D7F81031B3FA83F31A460B4B6D
:102A800013449B001A4601231360FEF7E3FAC7F8CC
:102A9000F8010DE0FEF7DEFA0246D7F8F831D31A56
:102AA000022B05D90323C4E30010024020819010BB
:102AB0000223C7F80C31D7F80C3193FAA3F3C7F807
:102AC00008310223C7F80431D7F8043193FAA3F28E
:102AD00007F580731A6007F1FC0302221A6007F100
:102AE000FC031B6893FAA3F207F1F8031A60A54BE5
:102AF0005A6A07F1F4030221196007F1F4031B6815
:102B000093FAA3F107F1F003196007F1F0031B68D2
:102B1000B3FA83F35BB243F060035BB2DBB203F062
:102B20001F03012101FA03F31340002BB2D06AE026
:102B300007F1EC0301221A6007F1EC031B6893FA1A
:102B4000A3F207F1E8031A6007F1E8031B68B3FA80
:102B500083F31A468C4B13449B001A4600231360E0
:102B6000FEF778FAC7F8F80109E0FEF773FA0246B3
:102B7000D7F8F831D31A022B01D9032359E307F10F
:102B8000E40302221A6007F1E4031B6893FAA3F23C
:102B900007F1E0031A6007F1DC0302221A6007F173
:102BA000DC031B6893FAA3F207F1D8031A6007F15C
:102BB000D40302221A6007F1D4031B6893FAA3F22C
:102BC00007F1D0031A606F4B5A6A07F1CC03022158
:102BD000196007F1CC031B6893FAA3F107F1C8034E
:102BE000196007F1C8031B68B3FA83F35BB243F0C3
:102BF00060035BB2DBB203F01F03012101FA03F3B0
:102C00001340002BB1D13B1D1B681B6803F004036C
:102C1000002B00F05981002387F8FF31594BDB6905
:102C200003F08053002B12D1564A564BDB6943F018
:102C30008053D361534BDB6903F0805207F10C03DF
:102C40001A6007F10C031B68012387F8FF314F4B13
:102C50001B6803F48073002B1AD14C4A4B4B1B6842
:102C600043F480731360FEF7F5F9C7F8F80109E043
:102C7000FEF7F0F90246D7F8F831D31A642B01D9E0
:102C80000323D6E2414B1B6803F48073002BEFD083
:102C90003B1D1B689B68012B06D13A4A394B1B6AC6
:102CA00043F0010313622FE03B1D1B689B68002B60
:102CB0000CD1344A334B1B6A23F001031362314AAF
:102CC000304B1B6A23F0040313621DE03B1D1B689D
:102CD0009B68052B0CD12B4A2A4B1B6A43F004033B
:102CE0001362284A274B1B6A43F0010313620BE06F
:102CF000244A244B1B6A23F001031362214A214B0F
:102D00001B6A23F0040313623B1D1B689B68002BA6
:102D10006BD0FEF79FF9C7F8F8010BE0FEF79AF9C0
:102D20000246D7F8F831D31A41F28832934201D9DA
:102D300003237EE207F1C40302221A6007F1C403F1
:102D40001B6893FAA3F207F1C0031A6007F1BC03F2
:102D500002221A6007F1BC031B6893FAA3F207F181
:102D6000B8031A6007F1B8031B68B3FA83F3DBB248
:102D70005B09DBB243F00203DBB2022B08D1014B4B
:102D80001B6A13E000100240208190100070004088
:102D900007F1B40302221A6007F1B4031B6893FA27
:102DA000A3F207F1B0031A60C04B5B6A07F1AC02F3
:102DB0000221116007F1AC02126892FAA2F107F148
:102DC000A802116007F1A8021268B2FA82F252B2A8
:102DD00042F0400252B2D2B202F01F02012101FAC7
:102DE00002F21340002B99D064E0FEF733F9C7F8E4
:102DF000F8010BE0FEF72EF90246D7F8F831D31AA6
:102E000041F28832934201D9032312E207F1A4036D
:102E100002221A6007F1A4031B6893FAA3F207F1D8
:102E2000A0031A6007F19C0302221A6007F19C03B9
:102E30001B6893FAA3F207F198031A6007F198034D
:102E40001B68B3FA83F3DBB25B09DBB243F0020326
:102E5000DBB2022B02D1954B1B6A0DE007F1940304
:102E600002221A6007F194031B6893FAA3F207F198
:102E700090031A608D4B5B6A07F18C02022111608E
:102E800007F18C02126892FAA2F107F18802116030
:102E900007F188021268B2FA82F252B242F040029E
:102EA00052B2D2B202F01F02012101FA02F2134023
:102EB000002B9FD197F8FF31012B05D17B4A7B4B2B
:102EC000DB6923F08053D3613B1D1B689B69002B9A
:102ED00000F0AE81754B5B6803F00C03082B00F02B
:102EE000A5813B1D1B689B69022B40F01D8107F1EA
:102EF00084034FF080721A6007F184031B6893FA11
:102F0000A3F207F180031A6007F180031B68B3FA8C
:102F100083F303F1845303F584139B001A460023C3
:102F20001360FEF797F8C7F8F80109E0FEF792F88A
:102F30000246D7F8F831D31A022B01D9032378E1DE
:102F400007F17C034FF000721A6007F17C031B68E5
:102F500093FAA3F207F178031A6007F178031B686C
:102F6000B3FA83F3DBB25B09DBB243F00103DBB2FC
:102F7000012B02D14D4B1B681BE007F174034FF08E
:102F800000721A6007F174031B6893FAA3F207F149
:102F900070031A6007F16C034FF000721A6007F1BA
:102FA0006C031B6893FAA3F207F168031A603F4BA6
:102FB0005B6A07F164024FF00071116007F164026F
:102FC000126892FAA2F107F16002116007F1600243
:102FD0001268B2FA82F252B242F0200252B2D2B277
:102FE00002F01F02012101FA02F21340002B9DD1D1
:102FF0002E492E4BDB6A23F00F023B1D1B685B6AD8
:103000001343CB622948294B5B6823F476123B1D9E
:103010001B68196A3B1D1B68DB690B431343436044
:1030200007F15C034FF080721A6007F15C031B68C4
:1030300093FAA3F207F158031A6007F158031B68CB
:10304000B3FA83F303F1845303F584139B001A4608
:1030500001231360FDF7FEFFC7F8F80109E0FDF753
:10306000F9FF0246D7F8F831D31A022B01D903230E
:10307000DFE007F154034FF000721A6007F15403C8
:103080001B6893FAA3F207F150031A6007F150038B
:103090001B68B3FA83F3DBB25B09DBB243F00103D5
:1030A000DBB2012B04D1014B1B681DE00010024074
:1030B00007F14C034FF000721A6007F14C031B68D4
:1030C00093FAA3F207F148031A6007F144034FF0A3
:1030D00000721A6007F144031B6893FAA3F207F128
:1030E00040031A60554B5B6A07F13C024FF00071D8
:1030F000116007F13C02126892FAA2F107F138025E
:10310000116007F138021268B2FA82F252B242F04C
:10311000200252B2D2B202F01F02012101FA02F2E1
:103120001340002B9BD083E007F134034FF08072F3
:103130001A6007F134031B6893FAA3F207F1300316
:103140001A6007F130031B68B3FA83F303F1845369
:1031500003F584139B001A4600231360FDF77AFFE2
:10316000C7F8F80109E0FDF775FF0246D7F8F83116
:10317000D31A022B01D903235BE007F12C034FF094
:1031800000721A6007F12C031B6893FAA3F207F18F
:1031900028031A6007F128031B68B3FA83F3DBB234
:1031A0005B09DBB243F00103DBB2012B02D1234BFD
:1031B0001B681BE007F124034FF000721A6007F14F
:1031C00024031B6893FAA3F207F120031A6007F1A6
:1031D0001C034FF000721A6007F11C031B6893FA7E
:1031E000A3F207F118031A60144B5B6A07F114028B
:1031F0004FF00071116007F11402126892FAA2F107
:1032000007F11002116007F110021268B2FA82F29F
:1032100052B242F0200252B2D2B202F01F02012199
:1032200001FA02F21340002B9DD101E0012300E0DE
:103230000023184607F50077BD4680BD0010024008
:1032400080B59EB000AF7860396000237B677B68F3
:10325000002B01D1012364E1924B1B6803F00702AC
:103260003B689A4210D28F498E4B1B6823F00702AD
:103270003B6813430B608B4B1B6803F007023B68F2
:103280009A4201D001234CE17B681B6803F00203E2
:10329000002B08D08449844B5B6823F0F0027B68E4
:1032A0009B6813434B607B681B6803F00103002B92
:1032B00000F0DF807B685B68012B3DD14FF4003369
:1032C0003B673B6F93FAA3F3FB66FB6EB3FA83F3A2
:1032D000DBB25B09DBB243F00103DBB2012B02D1AD
:1032E000714B1B680FE04FF40033BB66BB6E93FA63
:1032F000A3F37B664FF400333B663B6E93FAA3F374
:10330000FB65694B5B6A4FF40032BA65BA6D92FA9D
:10331000A2F27A657A6DB2FA82F252B242F02002DB
:1033200052B2D2B202F01F02012101FA02F213409E
:10333000002B7DD10123F4E07B685B68022B3DD13B
:103340004FF000733B653B6D93FAA3F3FB64FB6C9A
:10335000B3FA83F3DBB25B09DBB243F00103DBB208
:10336000012B02D1504B1B680FE04FF00073BB6480
:10337000BB6C93FAA3F37B644FF000733B643B6C2C
:1033800093FAA3F3FB63484B5B6A4FF00072BA6396
:10339000BA6B92FAA2F27A637A6BB2FA82F252B202
:1033A00042F0200252B2D2B202F01F02012101FA11
:1033B00002F21340002B3BD10123B2E002233B6316
:1033C0003B6B93FAA3F3FB62FB6AB3FA83F3DBB2C2
:1033D0005B09DBB243F00103DBB2012B02D1324BBC
:1033E0001B680DE00223BB62BB6A93FAA3F37B6206
:1033F00002233B623B6A93FAA3F3FB612A4B5B6AAD
:103400000222BA61BA6992FAA2F27A617A69B2FAD0
:1034100082F252B242F0200252B2D2B202F01F0245
:10342000012101FA02F21340002B01D1012378E0BF
:103430001D491D4B5B6823F003027B685B681343E7
:103440004B60FDF707FE78670AE0FDF703FE0246D2
:103450007B6FD31A41F28832934201D9032360E093
:10346000114B5B6803F00C027B685B689B009A421F
:10347000EBD10C4B1B6803F007023B689A4215D94D
:103480000849084B1B6823F007023B6813430B6095
:10349000044B1B6803F007023B689A4206D00123E5
:1034A0003FE000BF00200240001002407B681B6824
:1034B00003F00403002B08D01C491C4B5B6823F469
:1034C000E0627B68DB6813434B607B681B6803F03A
:1034D0000803002B09D01549144B5B6823F4605294
:1034E0007B681B69DB0013434B6000F025F8014645
:1034F0000E4B5B6803F0F002F0233B613B6993FAEB
:10350000A3F3FB60FB68B3FA83F322FA03F3084AE0
:10351000D35C21FA03F3074A13600020FDF756FD40
:10352000002318467837BD4680BD00BF001002401A
:10353000249700088800002080B48BB000AF0023DF
:10354000FB610023BB6100237B6200237B610023BE
:103550003B622A4B5B68FB61FB6903F00C03042BA5
:1035600002D0082B03D03FE0254B3B623FE0FB69D4
:1035700003F470124FF47013BB60BB6893FAA3F3AB
:103580007B607B68B3FA83F322FA03F31D4AD35CB2
:103590007B611A4BDB6A03F00F020F233B613B692F
:1035A00093FAA3F3FB60FB68B3FA83F322FA03F305
:1035B000154AD35CBB61FB6903F48033002B08D050
:1035C0000F4ABB69B2FBF3F37A6902FB03F37B6238
:1035D00007E00B4ABB69B2FBF3F37A6902FB03F322
:1035E0007B627B6A3B6202E0054B3B6200BF3B6A49
:1035F00018462C37BD465DF8047B7047001002402A
:1036000000127A00988F0008A88F000880B400AFDD
:10361000034B1B681846BD465DF8047B704700BF2E
:103620008800002080B582B000AFFFF7EFFF0146B1
:103630000B4B5B6803F4E0624FF4E0637B607B68F4
:1036400093FAA3F33B603B68B3FA83F322FA03F3E4
:10365000044AD35C21FA03F318460837BD4680BDFF
:10366000001002403497000880B582B000AFFFF729
:10367000CDFF01460B4B5B6803F460524FF460537F
:103680007B607B6893FAA3F33B603B68B3FA83F3F8
:1036900022FA03F3044AD35C21FA03F318460837ED
:1036A000BD4680BD001002403497000880B592B03E
:1036B00000AF786000233B640023FB637B681B68DA
:1036C00003F48033002B00F0D680002387F84730C6
:1036D0004D4BDB6903F08053002B0ED14A4A4A4B15
:1036E000DB6943F08053D361474BDB6903F08053C0
:1036F000BB60BB68012387F84730444B1B6803F469
:103700008073002B18D1414A404B1B6843F48073EF
:103710001360FDF79FFC386408E0FDF79BFC024650
:103720003B6CD31A642B01D90323D4E1374B1B68BC
:1037300003F48073002BF0D0334B1B6A03F4407307
:10374000FB63FB6B002B00F083807B685B6803F4FA
:103750004072FB6B9A427BD02B4B1B6A23F4407365
:10376000FB634FF480333B633B6B93FAA3F3FB6241
:10377000FB6AB3FA83F31A46254B13449B001A469F
:10378000012313604FF48033BB63BB6B93FAA3F345
:103790007B637B6BB3FA83F31A461D4B13449B0088
:1037A0001A4600231360184AFB6B1362FB6B03F08D
:1037B0000103002B4CD0FDF74DFC38640AE0FDF707
:1037C00049FC02463B6CD31A41F28832934201D93C
:1037D000032380E10223BB62BB6A93FAA3F37B62FB
:1037E00002233B623B6A93FAA3F3FB61FB69B3FAE2
:1037F00083F3DBB25B09DBB243F00203DBB2022BE3
:1038000008D1014B1B6A0DE000100240007000401F
:10381000008190100223BB61BB6993FAA3F37B6123
:103820009C4B5B6A02223A613A6992FAA2F2FA6010
:10383000FA68B2FA82F252B242F0400252B2D2B206
:1038400002F01F02012101FA02F21340002BB6D050
:103850009049904B1B6A23F440727B685B6813436A
:103860000B6297F84730012B05D18A4A894BDB69F7
:1038700023F08053D3617B681B6803F00103002BA6
:1038800008D08449834B1B6B23F003027B689B6841
:1038900013430B637B681B6803F00203002B08D003
:1038A0007C497C4B1B6B23F440327B68DB68134301
:1038B0000B637B681B6803F00403002B08D0754979
:1038C000744B1B6B23F440227B681B6913430B630F
:1038D0007B681B6803F02003002B08D06D496D4BFB
:1038E0001B6B23F010027B68DB6913430B637B685F
:1038F0001B6803F40033002B08D06649654B5B68F6
:1039000023F480027B685B6D13434B607B681B680C
:1039100003F04003002B08D05E495E4B1B6B23F085
:1039200020027B681B6A13430B637B681B6803F4EC
:103930008023002B08D05749564B1B6B23F04002C5
:103940007B685B6A13430B637B681B6803F00803A7
:10395000002B08D04F494F4B1B6B23F440127B6860
:103960005B6913430B637B681B6803F01003002B38
:1039700008D04849474B1B6B23F440027B689B6986
:1039800013430B637B681B6803F40073002B08D0A0
:103990004049404B5B6823F400027B681B6B134378
:1039A0004B607B681B6803F08003002B08D039490B
:1039B000384BDB6A23F4F8727B689B6A1343CB6253
:1039C0007B681B6803F48073002B08D03149314BAE
:1039D000DB6A23F478527B68DB6A1343CB627B6833
:1039E0001B6803F48053002B08D02A49294B1B6B1A
:1039F00023F480727B685B6B13430B637B681B68EB
:103A000003F40053002B08D02249224B1B6B23F4F4
:103A100000727B681B6C13430B637B681B6803F4A9
:103A20008013002B08D01B491A4B1B6B23F08072AC
:103A30007B689B6B13430B637B681B6803F4001369
:103A4000002B08D01349134B1B6B23F000727B68CB
:103A5000DB6B13430B637B681B6803F48003002B51
:103A600008D00C490B4B1B6B23F480627B685B6CAA
:103A700013430B637B681B6803F40003002B0BD01C
:103A80000449044B1B6B23F400627B689B6C13435B
:103A90000B6301E0001002407B681B6803F0807339
:103AA000002B08D00E490E4B1B6B23F400527B6891
:103AB000DB6C13430B637B681B6803F00073002B04
:103AC00008D00749064B1B6B23F400427B681B6D33
:103AD00013430B63002318464837BD4680BD00BF23
:103AE0000010024080B582B000AF78607B68002B88
:103AF00001D101231DE07B6893F83D30DBB2002B40
:103B000006D17B68002283F83C20786802F058F9DF
:103B10007B68022283F83D207B681A687B68043347
:103B20001946104600F096F97B68012283F83D2083
:103B3000002318460837BD4680BD80B483B000AF6F
:103B400078607B681B687A681268D26842F001026C
:103B5000DA607B681B687A681268126842F00102BA
:103B60001A60002318460C37BD465DF8047B704789
:103B700080B483B000AF78607B681B687A68126895
:103B8000D26822F00102DA607B681B681A6A41F28F
:103B900011131340002B0FD17B681B681A6A40F287
:103BA00044431340002B07D17B681B687A68126876
:103BB000126822F001021A60002318460C37BD4635
:103BC0005DF8047B704780B582B000AF78607B6899
:103BD0001B681B6903F00203022B22D17B681B6860
:103BE000DB6803F00203022B1BD17B681B686FF0BC
:103BF00002021A617B6801221A777B681B689B6945
:103C000003F00303002B03D0786800F005F905E00A
:103C1000786800F0F7F8786800F008F97B6800220F
:103C20001A777B681B681B6903F00403042B22D1FD
:103C30007B681B68DB6803F00403042B1BD17B68E3
:103C40001B686FF004021A617B6802221A777B6896
:103C50001B689B6903F44073002B03D0786800F065
:103C6000DBF805E0786800F0CDF8786800F0DEF861
:103C70007B6800221A777B681B681B6903F00803C6
:103C8000082B22D17B681B68DB6803F00803082B34
:103C90001BD17B681B686FF008021A617B680422E5
:103CA0001A777B681B68DB6903F00303002B03D0E2
:103CB000786800F0B1F805E0786800F0A3F878685B
:103CC00000F0B4F87B6800221A777B681B681B69D8
:103CD00003F01003102B22D17B681B68DB6803F014
:103CE0001003102B1BD17B681B686FF010021A6148
:103CF0007B6808221A777B681B68DB6903F44073D2
:103D0000002B03D0786800F087F805E0786800F0B1
:103D100079F8786800F08AF87B6800221A777B6867
:103D20001B681B6903F00103012B0ED17B681B6824
:103D3000DB6803F00103012B07D17B681B686FF080
:103D400001021A61786801F0F9F97B681B681B6948
:103D500003F08003802B0ED17B681B68DB6803F0C7
:103D60008003802B07D17B681B686FF080021A618B
:103D7000786800F075F97B681B681B6903F4807331
:103D8000B3F5807F0ED17B681B68DB6803F080038E
:103D9000802B07D17B681B686FF480721A6178688A
:103DA00000F068F97B681B681B6903F04003402B37
:103DB0000ED17B681B68DB6803F04003402B07D102
:103DC0007B681B686FF040021A61786800F038F871
:103DD0007B681B681B6903F02003202B0ED17B68D6
:103DE0001B68DB6803F02003202B07D17B681B686E
:103DF0006FF020021A61786800F028F900BF0837D8
:103E0000BD4680BD80B483B000AF786000BF0C3782
:103E1000BD465DF8047B704780B483B000AF786026
:103E200000BF0C37BD465DF8047B704780B483B09B
:103E300000AF786000BF0C37BD465DF8047B70476B
:103E400080B483B000AF786000BF0C37BD465DF82A
:103E5000047B704780B485B000AF78603960002380
:103E6000FB607B681B68FB607B68424A934213D00F
:103E70007B68B3F1804F0FD07B683F4A93420BD0F1
:103E80007B683E4A934207D07B683D4A934203D009
:103E90007B683C4A934208D1FB6823F07003FB60C7
:103EA0003B685B68FA681343FB607B68314A934266
:103EB0001FD07B68B3F1804F1BD07B682E4A9342A2
:103EC00017D07B682D4A934213D07B682C4A9342CB
:103ED0000FD07B682C4A93420BD07B682B4A9342CD
:103EE00007D07B682A4A934203D07B68254A9342D5
:103EF00008D1FB6823F44073FB603B68DB68FA6819
:103F00001343FB60FB6823F080023B685B6913434B
:103F1000FB607B68FA681A603B689A687B68DA62C3
:103F20003B681A687B689A627B68124A934213D096
:103F30007B68134A93420FD07B68134A93420BD09D
:103F40007B68124A934207D07B68114A934203D0A0
:103F50007B680C4A934203D13B681A697B681A63F9
:103F60007B6801225A6100BF1437BD465DF8047BAF
:103F7000704700BF002C01400004004000080040D2
:103F80000034014000500140004001400044014025
:103F90000048014080B485B000AF786039607B682C
:103FA00093F83C30012B01D1022342E07B680122CF
:103FB00083F83C207B681B685B68FB607B681B6840
:103FC0009B68BB607B681B681D4A934209D07B6875
:103FD0001B681C4A934204D07B681B681A4A9342B0
:103FE00008D1FB6823F47003FB603B685B68FA68E8
:103FF0001343FB60FB6823F07003FB603B681B68A6
:10400000FA681343FB60BB6823F08003BB603B6826
:104010009B68BA681343BB607B681B68FA685A6088
:104020007B681B68BA689A607B68002283F83C2032
:10403000002318461437BD465DF8047B704700BF67
:10404000002C0140003401400050014080B483B096
:1040500000AF786000BF0C37BD465DF8047B704749
:1040600080B483B000AF786000BF0C37BD465DF808
:10407000047B704780B483B000AF786000BF0C371A
:10408000BD465DF8047B704780B582B000AF7860B4
:104090007B68002B01D1012343E07B6893F86930F2
:1040A000DBB2002B06D17B68002283F86820786899
:1040B00001F000FF7B68242283F869207B681B687D
:1040C0007A681268126822F001021A60786800F0BB
:1040D0002DF80346012B01D1012322E07B685B6AA6
:1040E000002B02D0786800F01FFA7B681B687A68A2
:1040F0001268526822F490425A607B681B687A68A2
:104100001268926822F02A029A607B681B687A68BB
:104110001268126842F001021A60786800F0A6FA8C
:10412000034618460837BD4680BD000090B587B0ED
:1041300000AF78600023FB601023FB7500237B81B8
:104140000023BB820023FB747B689A687B681B6931
:104150001A437B685B691A437B68DB691343FB6026
:104160007B681A687B681B681968A64B0B40F96866
:104170000B4313607B681B687A681268526822F4EC
:1041800040517A68D2680A435A607B689A697B68B2
:104190001B6A1343FB607B681B687A68126892682D
:1041A00022F43061FA680A439A607B681B68964A79
:1041B000934221D1954B1B6B03F00303032B17D8BC
:1041C00001A252F823F000BFD9410008E5410008E0
:1041D000EB410008DF4100080123FB75B2E0022338
:1041E000FB75AFE00423FB75ACE00823FB75A9E089
:1041F0001023FB7500BFA5E07B681B68844A9342CF
:1042000023D1824B1B6B03F44033B3F5803F12D0B4
:10421000B3F5803F02D8002B07D012E0B3F5003F82
:104220000CD0B3F5403F03D00BE00023FB7589E0D1
:104230000223FB7586E00423FB7583E00823FB75EE
:1042400080E01023FB7500BF7CE07B681B68714A2F
:10425000934223D16D4B1B6B03F44023B3F5802FA6
:1042600012D0B3F5802F02D8002B07D012E0B3F59F
:10427000002F0CD0B3F5402F03D00BE00023FB75CB
:1042800060E00223FB755DE00423FB755AE0082320
:10429000FB7557E01023FB7500BF53E07B681B687C
:1042A0005D4A934223D1594B1B6B03F44013B3F582
:1042B000801F12D0B3F5801F02D8002B07D012E068
:1042C000B3F5001F0CD0B3F5401F03D00BE0002363
:1042D000FB7537E00223FB7534E00423FB7531E006
:1042E0000823FB752EE01023FB7500BF2AE07B68D6
:1042F0001B684A4A934223D1444B1B6B03F440038F
:10430000B3F5800F12D0B3F5800F02D8002B07D081
:1043100012E0B3F5000F0CD0B3F5400F03D00BE063
:104320000023FB750EE00223FB750BE00423FB75F5
:1043300008E00823FB7505E01023FB7500BF01E0D2
:104340001023FB757B68DB69B3F5004F7DD1FB7DE6
:10435000082B65D801A252F823F000BF8143000862
:104360009D430008B943000821440008D3430008D6
:10437000214400082144000821440008EF430008BC
:10438000FFF750F903465A007B685B685B081A44E4
:104390007B685B68B2FBF3F3BB8244E0FFF764F930
:1043A00003465A007B685B685B081A447B685B685D
:1043B000B2FBF3F3BB8236E07B685B685B0803F516
:1043C000740303F510537A685268B3FBF2F3BB82AF
:1043D00029E0FFF7B1F803465A007B685B685B0889
:1043E0001A447B685B68B2FBF3F3BB821BE07B681B
:1043F0005B685B0803F580327B685B68B2FBF3F3B4
:10440000BB8210E0F369FFEF00380140001002406A
:104410000044004000480040004C00400050004074
:104420000123FB7400BFBB8A23F00F037B81BB8A8F
:104430005B109BB203F007039AB27B8913437B8125
:104440007B681B687A89DA6069E0FB7D082B63D89A
:1044500001A252F823F000BF7D4400089D440008EB
:10446000BD44000819450008DD440008194500084E
:104470001945000819450008FD4400087B681C68C0
:10448000FFF7D0F802467B685B685B081A447B68DC
:104490005B68B2FBF3F39BB2E36040E07B681C68AF
:1044A000FFF7E2F802467B685B685B081A447B68AA
:1044B0005B68B2FBF3F39BB2E36030E07B681A68A1
:1044C0007B685B685B0803F5F40303F59053796838
:1044D0004968B3FBF1F39BB2D36020E07B681C68B2
:1044E000FFF72AF802467B685B685B081A447B6822
:1044F0005B68B2FBF3F39BB2E36010E07B681B6880
:104500007A685268520802F500417A685268B1FB35
:10451000F2F292B2DA6002E00123FB7400BFFB7C8E
:1045200018461C37BD4690BD80B483B000AF78609C
:104530007B685B6A03F00103002B0AD07B681B6871
:104540007A681268526822F400317A68926A0A43E3
:104550005A607B685B6A03F00203002B0AD07B6819
:104560001B687A681268526822F480317A68D26ACD
:104570000A435A607B685B6A03F00403002B0AD08D
:104580007B681B687A681268526822F480217A6816
:10459000126B0A435A607B685B6A03F00803002BC6
:1045A0000AD07B681B687A681268526822F400415E
:1045B0007A68526B0A435A607B685B6A03F01003A7
:1045C000002B0AD07B681B687A681268926822F414
:1045D00080517A68926B0A439A607B685B6A03F049
:1045E0002003002B0AD07B681B687A6812689268E7
:1045F00022F400517A68D26B0A439A607B685B6A46
:1046000003F04003002B1AD07B681B687A6812689D
:10461000526822F480117A68126C0A435A607B68EF
:104620001B6CB3F5801F0AD17B681B687A6812681F
:10463000526822F4C0017A68526C0A435A607B685F
:104640005B6A03F08003002B0AD07B681B687A68E2
:104650001268526822F400217A68926C0A435A6008
:1046600000BF0C37BD465DF8047B704780B586B04F
:1046700002AF78600023FB607B680022DA66FCF7FB
:10468000E9FCF8607B681B681B6803F00803082BD3
:104690000ED16FF07E430093FB6800224FF40011AF
:1046A000786800F02CF80346002B01D0032322E0A9
:1046B0007B681B681B6803F00403042B0ED16FF0AA
:1046C0007E430093FB6800224FF48001786800F07D
:1046D00016F80346002B01D003230CE07B68202250
:1046E00083F869207B68202283F86A207B68002297
:1046F00083F86820002318461037BD4680BD80B57A
:1047000084B000AFF860B9603B601346FB712CE0E9
:10471000BB69B3F1FF3F28D0BB69002B07D0FCF782
:1047200099FC02463B68D21ABB699A421DD9FB68C4
:104730001B68FA681268126822F4D0721A60FB686B
:104740001B68FA681268926822F001029A60FB689E
:10475000202283F86920FB68202283F86A20FB6806
:10476000002283F8682003230FE0FB681B68DA69E6
:10477000BB681A40BB689A420CBF01230023DBB21E
:104780001A46FB799A42C3D0002318461037BD461B
:1047900080BD80B588B004AF78601F233B734FF4B1
:1047A000FA7302930123019307F10C030093012391
:1047B000012298217868FDF74BF90346FB73FB7BD8
:1047C00018461037BD4680BD80B588B004AF78600C
:1047D0000023BB7340F2DC5302930123019307F1E2
:1047E0000E0300930123022298217868FDF730F927
:1047F0000346FB73FB7B18461037BD4680BD80B572
:1048000088B004AF78600B467B8000237B73002365
:10481000BB7319E04FF47A7302930123019307F1FC
:104820000D0300930123002298217868FDF736FAE2
:104830000346FB737B7B03F00403BB730A20FCF786
:1048400015FC7B880A3B7B807B88002B02D0BB7BDE
:10485000002BDFD0FB7B18461037BD4680BD000023
:1048600090B589B004AF786039604FF47A730293E1
:104870000123019307F10803009301230E229821DD
:104880007868FDF70BFA0346FB73FB7B002B01D026
:10489000FB7B45E04FF47A7302930123019307F108
:1048A00008030133009301230F2298217868FDF754
:1048B000F5F90346FB73FB7B002B01D0FB7B2FE05C
:1048C0003B7A1B021AB27B7A1BB213431BB29BB218
:1048D000C3F30D03BB81BB891846FBF72BFE13A363
:1048E000D3E90023FBF78CFE03460C46184621460D
:1048F00010A3D3E90023FBF7ADFF03460C4618468F
:1049000021464FF00002084BFBF7C8FC03460C465B
:1049100018462146FCF76CF902463B681A60FB7B9F
:1049200018461437BD4690BD000004407B14AE47C6
:10493000E11273400000000080842E41000000005E
:10494000B0B588B004AF786039604FF47A730293E1
:104950000123019307F10803009301230822982102
:104960007868FDF79BF90346FB73FB7B002B01D0B6
:10497000FB7B4BE04FF47A7302930123019307F121
:104980000803013300930123092298217868FDF779
:1049900085F90346FB73FB7B002B01D0FB7B35E0E5
:1049A0003B7A1B021AB27B7A1BB213431BB29BB237
:1049B000C3F30D03BB81BB891846FBF7BBFD16A3F0
:1049C000D3E90023FBF71CFE03460C46184621469C
:1049D00013A3D3E90023FBF73DFF03460C4625460E
:1049E0001C464FF080431846FBF7B6FD02460B46C7
:1049F00020462946FBF704FE03460C46184621468E
:104A0000FCF7F6F802463B681A60FB7B1846103745
:104A1000BD46B0BDAFF300807B14AE47E1127340DA
:104A20000000000080842E41B0B588B004AF7860EB
:104A300039604FF47A7302930123019307F108035D
:104A400000930123062298217868FDF727F9034691
:104A5000FB73FB7B002B01D0FB7B4BE04FF47A73A5
:104A600002930123019307F108030133009301230B
:104A7000072298217868FDF711F90346FB73FB7B49
:104A8000002B01D0FB7B35E03B7A1B021AB27B7A0C
:104A90001BB213431BB29BB2C3F30D03BB81BB8993
:104AA0001846FBF747FD16A3D3E90023FBF7A8FD43
:104AB00003460C461846214613A3D3E90023FBF70F
:104AC000C9FE03460C4625461C464FF08043184657
:104AD000FBF742FD02460B4620462946FBF790FDB8
:104AE00003460C4618462146FCF782F802463B680E
:104AF0001A60FB7B18461037BD46B0BDAFF300808F
:104B00007B14AE47E11273400000000080842E4108
:104B1000B0B584B000AFF86087ED020AC7ED010AB6
:104B2000396097ED027AD7ED017A77EE677A17EE62
:104B3000900AFBF711FD4FF000020F4BFBF760FDF1
:104B400003460C4625461C460C4B1846FBF704FD55
:104B500002460B4620462946FBF77CFE03460C46E0
:104B600018462146FCF744F802463B681A6000BF2D
:104B700018461037BD46B0BD00408F4052B81E3EAB
:104B800080B586B000AFF8600B467A60FB72FB7AA6
:104B9000002B06D17968F868FFF762FE0346FB75C3
:104BA00019E0FB7A012B06D17968F868FFF73CFF22
:104BB0000346FB750FE0FB7A042B06D17968F86891
:104BC000FFF7BEFE0346FB7505E07B684FF0000271
:104BD0001A600023FB7500BF18461837BD4680BD1C
:104BE00080B500AFFCF7DCF900F052F800F010FAE5
:104BF00000F0DEF900F0DCF800F0B0F800F018F991
:104C000000F04EF900F084F900F0AAF900F03EFD42
:104C1000002000F0A7FD164A012306CA154800F03F
:104C2000D3FE1548FFF7B5FD1448FEF786FF14487C
:104C3000FEF783FF00F02CFB124BD3ED007A124BF2
:104C400093ED007AF0EE470AB0EE670A00F0FEFB43
:104C50000C4BD3ED007AB0EE670A00F0F3FEF0EEF5
:104C6000407A0A4BC3ED007A00F042FBE2E700BF56
:104C700008000020488F0008880B0020040D002049
:104C8000C40C00201C070020280700202C0700204F
:104C900080B5A6B000AF07F17003282200211846A6
:104CA00001F048FA07F15C0300221A605A609A602A
:104CB000DA601A613B1D58220021184601F03AFAC9
:104CC00002233B670123FB671023C7F880300223D0
:104CD000C7F888304FF40043C7F88C304FF4E01326
:104CE000C7F890300023C7F8943007F170031846D6
:104CF000FDF7B8FB0346002B01D000F0A7FC0F2303
:104D0000FB6502233B6600237B664FF48063BB6632
:104D10000023FB6607F15C0302211846FEF790FAB8
:104D20000346002B01D000F091FC0B4B7B6000236D
:104D30003B6100233B620023FB6400233B653B1D7A
:104D40001846FEF7B3FC0346002B01D000F07EFCB2
:104D500000BF9837BD4680BD2200800180B584B079
:104D600000AF3B1D00221A605A609A600E4B0F4A3A
:104D70001A600D48FCF7A7FA0346002B01D000F09B
:104D800065FC00237B600023BB603B1D00221946AD
:104D90000548FCF78FFB0346002B01D000F056FCC2
:104DA00000BF1037BD4680BD740B0020007400406A
:104DB00080B500AF1B4B1C4A1A601A4B1B4A5A6045
:104DC000184B00229A60174B0122DA60154B002223
:104DD0001A61144B00225A61124B00229A61114B46
:104DE0000022DA610F4B00221A620E48FCF7A2FD86
:104DF0000346002B01D000F029FC00210948FDF7F3
:104E000097FA0346002B01D000F020FC0021054852
:104E1000FDF7D9FA0346002B01D000F017FC00BFC4
:104E200080BD00BF880B0020005400400E09002008
:104E300080B584B000AF3B1D00221A605A609A60B2
:104E4000154B164A1A60144B48F6A0425A60124B92
:104E500000229A60104B41F27072DA600E4B002211
:104E60009A610D48FEF73EFE0346002B01D000F08C
:104E7000EDFB00237B600023FB603B1D19460648C9
:104E8000FFF788F80346002B01D000F0DFFB00BFDE
:104E90001037BD4680BD00BF140C0020001000403C
:104EA00080B584B000AF3B1D00221A605A609A6042
:104EB000154B164A1A60144B48F6A0425A60124B22
:104EC00000229A60104B4FF4FA62DA600E4B002217
:104ED0009A610D48FEF706FE0346002B01D000F054
:104EE000B5FB00237B600023FB603B1D1946064891
:104EF000FFF750F80346002B01D000F0A7FB00BFDE
:104F00001037BD4680BD00BF040D002000140040D6
:104F100080B500AF104B114A1A600F4B48F6A04203
:104F20005A600D4B00229A600B4B4FF4FA62DA6024
:104F3000094B00221A61084B00225A61064B0022DD
:104F40009A610548FEF7CEFD0346002B01D000F024
:104F50007DFB00BF80BD00BFC40C002000440140A9
:104F600080B500AF104B114A1A600F4B48F6A042B3
:104F70005A600D4B00229A600B4B42F21072DA60BD
:104F8000094B00221A61084B00225A61064B00228D
:104F90009A610548FEF7A6FD0346002B01D000F0FC
:104FA00055FB00BF80BD00BFD40B0020004801406E
:104FB00080B500AF144B154A1A60134B4FF41642DC
:104FC0005A60114B00229A600F4B0022DA600E4BA0
:104FD00000221A610C4B0C225A610B4B00229A6181
:104FE000094B0022DA61084B00221A62064B0022AC
:104FF0005A620548FFF748F80346002B01D000F03D
:1050000025FB00BF80BD00BF540C002000440040C1
:1050100080B58AB000AF07F1140300221A605A600D
:105020009A60DA601A61414A404B5B6943F400239D
:1050300053613E4B5B6903F400233B613B693B4A90
:105040003A4B5B6943F480035361384B5B6903F46B
:105050008003FB60FB68354A344B5B6943F40033E3
:105060005361324B5B6903F40033BB60BB682F4A6A
:105070002E4B5B6943F4802353612C4B5B6903F433
:1050800080237B607B6800224FF484614FF0904066
:10509000FCF70EFC00224FF481612548FCF708FC68
:1050A0004FF400537B61234BBB610023FB6107F18D
:1050B000140319462048FCF755FA4FF484637B61CA
:1050C0000123BB610023FB6100233B6207F1140352
:1050D00019464FF09040FCF745FA4FF481637B612D
:1050E0000123BB610023FB6100233B6207F1140332
:1050F00019460F48FCF736FA4FF440737B610D4BAD
:10510000BB610123FB6107F1140319464FF0904086
:10511000FCF728FA002200211720FCF79EF8172040
:10512000FCF7B7F800BF2837BD4680BD001002402D
:1051300000040048000021100008004880B584B039
:1051400000AF78607B68494A934260D108214848A3
:10515000FCF7C6FB4FF400714FF09040FCF790FB5A
:105160000346002B24D14FF480714FF09040FCF7A0
:1051700087FB0346002B1BD13E4B1B78002B03D132
:10518000012000F017FA3EE03A4B1B78012B03D1C7
:10519000022000F00FFA36E0364B1B78022B03D1C9
:1051A000002000F007FA2EE0002000F003FA2AE0C9
:1051B000304B1B78022B11D14FF400714FF090400F
:1051C000FCF75EFB0346002B08D12B4B1B780A3300
:1051D000FB73FB7B184600F08FF914E0254B1B781E
:1051E000022B10D14FF480714FF09040FCF748FB38
:1051F0000346002B07D1204B1B780A3BBB73BB7BBC
:10520000184600F079F91948FEF7B2FC29E07B68EE
:105210001A4A934202D100F0FBF922E07B68184A57
:1052200093421ED1134B1B78022B03D0114B1B78DA
:10523000012B16D1134BD3ED007A9FED137AC7EEF5
:10524000876AF0EE660AB7EE000A00F03DFCB0EEA9
:10525000407A0E4BD3ED007A77EE277A0B4BC3EDF5
:10526000007A00BF1037BD4680BD00BF140C00207F
:10527000000400481807002019070020040D002032
:10528000C40C00202007002000007A4428070020DA
:1052900080B582B000AF4FF000037B601148FFF78C
:1052A00093FA64210F48FFF7AAFA0F4A01210D482B
:1052B000FFF766FC3B1D1A4604210A48FFF760FC15
:1052C000094BD3ED007A97ED017A0849F0EE470AD1
:1052D000B0EE670A0348FFF71BFC00BF0837BD4666
:1052E00080BD00BF880B00201C0700202007002085
:1052F00090B58DB000AF484B1B681846FBF72CF9F2
:1053000003460C4607F124001A462346434900F0A1
:1053100019FF25210F2000F07DFB414A012306CA19
:10532000404800F051FB2521342000F073FB3C4A3B
:1053300007F12400012306CA00F046FB3A4B1B6824
:105340001846FBF709F903460C4607F118001A4600
:105350002346364900F0F6FE31210F2000F05AFBBB
:105360002F4A012306CA324800F02EFB3121342097
:1053700000F050FB2A4A07F11800012306CA00F08A
:1053800023FB2C4B1B681846FBF7E6F803460C463C
:1053900007F10C001A462346274900F0D3FE1921D5
:1053A0000F2000F037FB1E4A012306CA234800F0F5
:1053B0000BFB1921342000F02DFB194A07F10C00DA
:1053C000012306CA00F000FB1D4B1B681846FBF7C3
:1053D000C3F803460C4638461A462346194900F0DE
:1053E000B1FE0E210F2000F015FB0D4A012306CA65
:1053F000154800F0E9FA0E21342000F00BFB084AB2
:105400003846012306CA00F0DFFA00F0CDF900BFEC
:105410003437BD4690BD00BF20070020548F0008E0
:10542000080000205C8F00081C070020648F000823
:105430006C8F000824070020788F0008808F0008F8
:105440002C070020888F0008908F000880B582B05C
:1054500000AF87ED010AC7ED000A174B1B78002B40
:1054600017D197ED010A00F051FBF0EE407A134B93
:10547000C3ED007A114B93ED007ADFED116AC7EEB0
:10548000267AB0EE087A67EE877A0E4BC3ED007A83
:105490000DE00C4B93ED007AF0EE086AC7EE267A29
:1054A0009FED077A67EE877A044BC3ED007A00BF61
:1054B0000837BD4680BD00BF180700202407002024
:1054C0000000C8422807002080B582B000AF034624
:1054D000FB80FB88B3F5807F03D0FB88B3F5007FAA
:1054E00002D10348FEF729FB00BF0837BD4680BD47
:1054F000140C00200000000090B585B000AF0346FA
:10550000FB71FB79642B01D96423FB71FB7918468D
:10551000FBF710F84FF00002154BFBF79BF9034621
:105520000C461846214610A3D3E90023FBF768F880
:1055300003460C4618462146FBF73AFB0346FB6040
:10554000FB68002200210B48FBF7E9FE0A4AFB79C1
:10555000137000210748FBF707FF00BF1437BD4653
:1055600090BD00BFAFF300800000000000FEAF4020
:1055700000005940740B00201907002080B582B04C
:1055800000AF0346FB71FB79012B06D101224FF4DA
:1055900080610748FCF78CF905E000224FF4806138
:1055A0000348FCF785F900BF0837BD4680BD00BF42
:1055B0000004004880B582B000AF0346FB71134A77
:1055C000FB791370114B1B78002B06D10020FFF7DD
:1055D000D5FF0020FFF790FF14E00C4B1B78012B48
:1055E00006D10120FFF7CAFF0020FFF785FF09E081
:1055F000064B1B78022B05D10020FFF7BFFF0A20C6
:10560000FFF77AFF00BF0837BD4680BD18070020AE
:1056100080B500AF0C4B1B681846FAF79DFF08A336
:10562000D3E90023FBF75EFA0346002B00D102E02A
:105630000020FFF7BFFF00BF80BD00BFAFF30080B9
:1056400066666666666606401C07002080B400AF8A
:1056500000BFBD465DF8047B7047000080B586B092
:1056600004AF0346FB710A23029301230193FB1D40
:1056700000930123002278210348FCF7E9F900BFD9
:105680000837BD4680BD00BF880B002080B500AF45
:105690006420FBF7EBFCAE20FFF7E0FF2020FFF7D4
:1056A000DDFF1020FFF7DAFFB020FFF7D7FFC8209B
:1056B000FFF7D4FF0020FFF7D1FF1020FFF7CEFF48
:1056C0004020FFF7CBFF8120FFF7C8FFFF20FFF747
:1056D000C5FFA120FFF7C2FFA620FFF7BFFFA8204C
:1056E000FFF7BCFF3F20FFF7B9FFA420FFF7B6FF8D
:1056F000D320FFF7B3FF0020FFF7B0FFD520FFF75F
:10570000ADFFF020FFF7AAFFD920FFF7A7FF222067
:10571000FFF7A4FFDA20FFF7A1FF1220FFF79EFF9B
:10572000DB20FFF79BFF2020FFF798FF8D20FFF77E
:1057300095FF1420FFF792FFAF20FFF78FFF0020A7
:1057400000F010F800F030F8054B00221A80044BEE
:1057500000225A80024B01225A710123184680BD53
:10576000300B002080B485B000AF0346FB710023EE
:10577000FB600DE0FB79002B01D1002100E0FF214F
:10578000084AFB6813440A461A70FB680133FB6041
:10579000FB68B3F5806FEDD300BF1437BD465DF8ED
:1057A000047B70473007002080B586B004AF00232B
:1057B000FB711DE0FB79503BDBB21846FFF74EFF53
:1057C0000020FFF74BFF1020FFF748FFFB79DB01BC
:1057D0000B4A134464220292802201920093012317
:1057E000402278210748FCF733F9FB790133FB713C
:1057F000FB79072BDED900BF0837BD4680BD00BF4F
:1058000030070020880B002080B483B000AF03462F
:10581000FB710B46BB7113467B7197F90730002B68
:1058200048DBBB793F2B45D8254B1B79002B06D095
:105830007B79002B0CBF01230023DBB27B717B79CA
:10584000012B1AD1FA79BB79DB08D8B20346DB0108
:105850001344F9790246D2010A441A498A5C51B2CA
:10586000BA7902F00702012000FA02F252B20A43AA
:1058700052B2D1B2134AD1541DE0FA79BB79DB0898
:10588000D8B20346DB011344F9790246D2010A4437
:105890000C498A5C51B2BA7902F00702012000FA81
:1058A00002F252B2D24352B20A4052B2D1B2054AC7
:1058B000D15400E000BF0C37BD465DF8047B704753
:1058C000300B00203007002090B589B000AF0446AF
:1058D000381D80E806001A462346FB731346BB7347
:1058E000384B1B881A463B7913447F2B06DC354B1B
:1058F0005B881A467B7913443F2B01DD00235DE072
:105900000023FB614CE0BA68FB7B203B797901FB0B
:1059100003F31946FB690B445B0013441B887B614E
:105920000023BB6134E07A69BB6902FA03F303F434
:105930000043002B12D0234B1B88DAB2BB69DBB2C9
:105940001344D8B21F4B5B88DAB2FB69DBB2134455
:10595000DBB2BA7B1946FFF757FF16E0194B1B88DD
:10596000DAB2BB69DBB21344D8B2164B5B88DAB249
:10597000FB69DBB21344D9B2BB7B002B0CBF012304
:105980000023DBB21A46FFF73FFFBB690133BB615F
:105990003B791A46BB699A42C5D8FB690133FB6162
:1059A0007B791A46FB699A42ADD8064B1A883B7937
:1059B0009BB213449AB2034B1A80FB7B18462437E0
:1059C000BD4690BD300B002080B584B000AFF860BC
:1059D000381D80E80600FB7012E0FB681878FB7841
:1059E0003A1D06CAFFF770FF03461A46FB681B788C
:1059F0009A4202D0FB681B7808E0FB680133FB6029
:105A0000FB681B78002BE8D1FB681B781846103721
:105A1000BD4680BD80B483B000AF03460A46FB712B
:105A20001346BB71FB799AB2054B1A80BB799AB2C7
:105A3000034B5A8000BF0C37BD465DF8047B7047AE
:105A4000300B002080B485B000AF87ED010A9FEDD8
:105A50001B7AD7ED017A77EEC77AC7ED037AD7EDD7
:105A6000037AF5EEC07AF1EE10FA02D54FF000039A
:105A7000FB60F3EE046ADFED127A86EEA77AD7EDCB
:105A8000036AC6EE877AC7ED027AB3EE047AD7EDE1
:105A9000027AF4EEC77AF1EE10FA01DD094BBB6031
:105AA00097ED017AD7ED027A67EE277AB0EE670AB2
:105AB0001437BD465DF8047B704700BF3333334075
:105AC00000007A440000A04180B485B000AF87EDAB
:105AD000010AC7ED000AD7ED007AB1EE677AD7ED7B
